:100000000C944B000C9468000C946A000C948501CD
:100010000C9468000C9468000C9468000C94AC007C
:100020000C9468000C9468000C9468000C94F50023
:100030000C9468000C9468000C9468000C946800A0
:100040000C9468000C9468000C94C2010C94680035
:100050000C9468000C9468000C9468000C94680080
:100060000C9468000C946800084AD73B3BCE016EA4
:1000700084BCBFFDC12F3D6C74319ABD56833DDAFF
:100080003D00C77F11BED9E4BB4C3E916BAAAABE0E
:10009000000000803F0011241FBECFEFD8E0DEBF7C
:1000A000CDBF12E0A8E0B2E001C01D92A835B107B3
:1000B000E1F712E0A0E0B1E0ECE3FEE102C0059060
:1000C0000D92A830B107D9F70E9402020C941C0FC0
:1000D0000C9400001F920F920FB60F9211242F93D1
:1000E0003F934F935F936F937F938F939F93AF93C0
:1000F000BF93EF93FF9320910802309109028EB5D0
:10010000F901EE0FFF1FE45EFD4F80831182223064
:1001100031052CF0109209021092080206C02F5FE0
:100120003F4F30930902209308028091080290917A
:1001300009020E942206FF91EF91BF91AF919F911A
:100140008F917F916F915F914F913F912F910F9080
:100150000FBE0F901F9018951F920F920FB60F921F
:1001600011242F933F934F935F936F937F938F93BC
:100170009F93AF93BF93EF93FF935D9A80E192E0DB
:1001800062E272E044E352E026E132E00E948B0337
:100190008FEF0E9418028FEF0E9418028FEF0E94CB
:1001A000180280911002909111020E942002809109
:1001B0001202909113020E942002809114029091E9
:1001C00015020E9420025D98FF91EF91BF91AF91BF
:1001D0009F918F917F916F915F914F913F912F915F
:1001E0000F900FBE0F901F9018951F920F920FB691
:1001F0000F9211242F933F934F935F936F937F93AD
:100200008F939F93AF93BF93EF93FF93F8948FEFE8
:100210000E9418028FEF0E94180280E00E941802CC
:100220008FEF0E9418028FEF0E94180281E00E9457
:10023000180280912202909123020E942002809154
:100240002402909125020E94200280912602909122
:1002500027020E94200282E00E94180280913A0246
:1002600090913B020E94200283E00E94180280913C
:100270003402909135020E942002809136029091C2
:1002800037020E94200280913802909139020E9428
:10029000200284E00E9418028091160290911702B9
:1002A0000E94200280911802909119020E9420025F
:1002B00080911A0290911B020E94200285E00E9408
:1002C000180280911C0290911D020E9420028091D0
:1002D0001E0290911F020E942002809120029091A4
:1002E00021020E9420027894FF91EF91BF91AF917B
:1002F0009F918F917F916F915F914F913F912F913E
:100300000F900FBE0F901F9018951F920F920FB66F
:100310000F9211242F933F934F935F936F937F938B
:100320008F939F93AF93BF93EF93FF93F89483B111
:1003300090E0837090708230910571F08330910568
:1003400039F0019769F484E392E00E94260308C023
:1003500084E392E00E94260386E192E00E94EA0292
:100360007894FF91EF91BF91AF919F918F917F9181
:100370006F915F914F913F912F910F900FBE0F9012
:100380001F9018951F920F920FB60F9211242F9362
:100390003F934F935F936F937F938F939F93AF930D
:1003A000BF93EF93FF93F8940E9415028F3F11F4CF
:1003B0000E9415027894FF91EF91BF91AF919F91A8
:1003C0008F917F916F915F914F913F912F910F90FE
:1003D0000FBE0F901F9018950E9409020E943006D0
:1003E0000E94CC020E94A3020E9475020E94920207
:1003F000569A559A80910802909109020E9422060D
:10040000789408950E94EC0180E48BB90E949202D6
:10041000FDCF1092C50083E08093C40086E08093F6
:10042000C20088E98093C10008958091C6000895B4
:10043000982F8091C00085FFFCCF9093C60008954F
:10044000982F8091C00085FFFCCF9093C6008091CB
:10045000C00085FFFCCF1092C6000895E8E6F0E0EA
:10046000808181608083EBE6F0E080818160808321
:100470000895E8E6F0E0808181608083EBE6F0E0BB
:100480008081826080830895E9E6F0E08081886061
:100490008083E99A089510928000E1E8F0E088E016
:1004A000808380E89BEB9093890080938800109272
:1004B00085001092840082E080936F0080818460C8
:1004C000808308951092B000A1EBB0E088E08C9397
:1004D0001092B30082E080937000E2EBF0E0808144
:1004E00080838C9187608C930895A8E6B0E08C910E
:1004F00081608C93EBE6F0E08081816080838C9159
:1005000081608C938081826080830E944B020E9474
:1005100062020895E0E6F0E08081886180838CE0EB
:1005200080830895A89508950F931F93162F042F85
:100530000E943606812F0E948F06802F0E948F0610
:100540001F910F91089586EA6DE240E00E949402A7
:1005500086EA6DE240E10E94940286EA6DE248E09C
:100560000E94940286EA6EE240E80E94940286EAC3
:100570006FE24FE70E94940286EA61E341E00E9445
:10058000940286EA6CE24BE00E94940286EA68E3F9
:1005900040E00E949402089580ED6EE340E80E94DE
:1005A000940280ED97E00197F1F780ED6EE340E073
:1005B0000E94940280ED65E144E00E94940280ED87
:1005C00066E14EE10E94940280ED67E141E00E9405
:1005D00094020895EF92FF920F931F937C0186EA95
:1005E0000E94360682E30E948F0687EA0E948406F4
:1005F0000E94A106082F0E94A106382F20E010E0DB
:10060000202B312BF701318320830E94A106082F74
:100610000E94A106382F20E010E0202B312BF7019B
:10062000338322830E94A106082F0E94AB06382F35
:1006300020E010E0202B312BF701358324830E942A
:1006400087061F910F91FF90EF900895EF92FF9210
:100650001F937C0180ED0E9436068BE10E948F067D
:1006600081ED0E9484060E94A106182F0E94A10617
:10067000312F20E090E0282B392BF7013783268398
:100680000E94A106182F0E94A106312F20E090E0C1
:10069000282B392B295E3F4FF701318320830E949D
:1006A000A106182F0E94A106312F20E090E0282BF0
:1006B000392B295F3F4FF701338322830E94A10624
:1006C000182F0E94AB06312F20E090E0282B392B09
:1006D000265F3F4FF701358324830E9487061F91D1
:1006E000FF90EF90089587E880937A0008958F70C7
:1006F00080937C0080E480937A0080917A0086FF6A
:10070000FCCF809178009091790080933C02109208
:100710003D0290E008954F925F926F927F928F9288
:100720009F92AF92BF92CF92DF92EF92FF920F9380
:100730001F93CF93DF932C016A01490110923F026E
:1007400010923E02BB24B3943DC0FE01EE0FFF1F8A
:10075000EC0DFD1D0190F081E02D8E01000F111FA9
:10076000000F111F3AE0E32E32E0F32EEC0EFD1ED7
:10077000F7FF13C0005C1D4FE095F095BF0188277F
:1007800077FD8095982F0E94350AF8016083718368
:1007900082839383F701B08210C0005C1D4FBF01BC
:1007A000882777FD8095982F0E94350AF80160838D
:1007B000718382839383F70110822196D0933F0245
:1007C000C0933E02C0913E02D0913F02C330D1059A
:1007D0000CF4BBCF609140027091410280914202C3
:1007E0009091430220E030E046E651E40E9459092E
:1007F00060934002709341028093420290934302BF
:1008000060914402709145028091460290914702A6
:1008100020E030E046E651E40E945909609344022A
:10082000709345028093460290934702609148027C
:100830007091490280914A0290914B0220E030E091
:1008400046E651E40E9459096093480270934902B8
:1008500080934A0290934B02C0E4D2E000E010E0A3
:100860000F2EF0E0CF2EF0E0DF2EF0E0EF2EF0E0E4
:10087000FF2EF02D13C0688179818A819B812DEC38
:100880003CEC4CE45EE30E94050A882324F4C88211
:10089000D982EA82FB820F5F1F4F24960330110535
:1008A00054F310933F0200933E028091B200809374
:1008B000B200609140027091410280914202909199
:1008C00043022FE632E143E85CE30E945F085B01EC
:1008D0006C016093400270934102809342029093B6
:1008E00043026091440270914502809146029091CA
:1008F00047022FE632E143E85CE30E945F087B0198
:100900008C01609344027093450280934602909359
:100910004702609148027091490280914A02909189
:100920004B022FE632E143E85CE30E945F089B0143
:10093000AC01609348027093490280934A029093FD
:100940004B0280910A02882359F0D601C501B058A4
:100950008093400290934102A0934202B0934302DD
:1009600080910B02882359F0D801C701B0588093B9
:10097000440290934502A0934602B09347028091AF
:100980000C02882359F0DA01C901B058809348025B
:1009900090934902A0934A02B0934B0210923F02F7
:1009A00010923E02DD24D3943DC0FE01EE0FFF1FE6
:1009B000E80DF91D0190F081E02D8E01000F111F4F
:1009C000000F111F8AE0E82E82E0F82EEC0EFD1ECB
:1009D000F1FF13C0045B1D4FE095F095BF01882720
:1009E00077FD8095982F0E94350AF8016083718306
:1009F00082839383F701D38210C0045B1D4FBF0134
:100A0000882777FD8095982F0E94350AF80160832A
:100A1000718382839383F70113822196D0933F02DF
:100A2000C0933E02C0913E02D0913F02C330D10537
:100A30000CF4BBCFE0905402F090550200915602A6
:100A40001091570260914C0270914D0280914E02BC
:100A500090914F02A80197010E94220D20EE3EE2E4
:100A600045E652E40E945F089B01AC0160934C0292
:100A700070934D0280934E0290934F0280910E022C
:100A8000882359F0DA01C901B05880934C02909341
:100A90004D02A0934E02B0934F02609150027091AC
:100AA00051028091520290915302A80197010E9435
:100AB000220D20EE3EE245E652E40E945F089B01D3
:100AC000AC01609350027093510280935202909354
:100AD000530280910F02882359F0DA01C901B058FE
:100AE0008093500290935102A0935202B09353020C
:100AF0006091500270915102809152029091530284
:100B00002DEC3CEC4CE45DE30E945F087B018C0122
:100B10006091440270914502809146029091470293
:100B200023E333E343E75FE30E945F089B01AC01EB
:100B3000C801B7010E94320820E030E040E050E0F8
:100B40000E9432085B016C01609148027091490279
:100B500080914A0290914B0223E333E343E75FE342
:100B60000E945F0820E030E040E050E00E94320840
:100B70003B014C0160914C0270914D0280914E02FC
:100B800090914F022DEC3CEC4CE45DE30E945F0839
:100B90007B018C0160914002709141028091420280
:100BA0009091430223E333E343E75FE30E945F084E
:100BB0009B01AC01C801B7010E94320820E030E07F
:100BC00040E050E00E94320820E030E048EC52E47F
:100BD0000E945F080E94930AF20171836083C6013C
:100BE000B50120E030E048EC52E40E945F080E942A
:100BF000930AF20173836283C401B30120E030E001
:100C000048EC52E40E945F080E94930AF201758347
:100C10006483DF91CF911F910F91FF90EF90DF9050
:100C2000CF90BF90AF909F908F907F906F905F908C
:100C30004F90089584B18C6284B92498579A81E5C5
:100C40008CBD08952A982F9A95E0292F2A95F1F7BF
:100C50002F989A95F1F78F5F837080638EBD08950A
:100C60001092B9008CE08093B8000895982F84EA20
:100C70008093BC008091BC0087FFFCCF8091B900BD
:100C8000887F883021F0803111F081E008959093C1
:100C9000BB0084E88093BC008091BC0087FFFCCF40
:100CA0009091B900987F983111F480E0089580E028
:100CB000903409F081E00895982F44EA34E824E95B
:100CC0004093BC008091BC0087FFFCCF8091B900AD
:100CD000887F883011F0803199F79093BB00309372
:100CE000BC008091BC0087FFFCCF8091B900887F59
:100CF000803211F0883539F42093BC008091BC001B
:100D000084FDFCCFDDCF08950E943606089584E966
:100D10008093BC008091BC0084FDFCCF089580933B
:100D2000BB0084E88093BC008091BC0087FFFCCFAF
:100D30008091B90090E0887F883209F091E0892F96
:100D4000089584EC8093BC008091BC0087FFFCCFA9
:100D50008091BB00089584E88093BC008091BC0022
:100D600087FFFCCF8091BB000895A0E0B0E0EBEBE3
:100D7000F6E00C94DC0CDC012B01FA019C91923022
:100D800008F439C1EB018881823008F433C1943012
:100D900069F4843009F02FC111969C9111978981D3
:100DA000981709F428C1A0E0B1E025C1843009F406
:100DB00021C18230A9F4923009F01DC19A01AD0120
:100DC00088E0EA010990AE01E90109929E01815093
:100DD000C1F7E201898111969C918923818308C121
:100DE000923009F407C112962D903C901397EB01B5
:100DF0008A819B811496AD90BD90CD90DC90179721
:100E0000EC80FD800E811F819101281B390BB901F7
:100E100037FF04C066277727621B730B60327105AA
:100E20000CF061C0121613066CF537014801062E4E
:100E300004C096948794779467940A94D2F721E03B
:100E400030E040E050E004C0220F331F441F551F24
:100E50006A95D2F721503040404050402E213F212A
:100E600040235123211531054105510521F021E091
:100E700030E040E050E079018A01E628F7280829AF
:100E800019293CC0232BD1F1260E371E350146010E
:100E9000062E04C096948794779467940A94D2F7A8
:100EA00021E030E040E050E004C0220F331F441F37
:100EB000551F6A95D2F721503040404050402A21BA
:100EC0003B214C215D21211531054105510521F0C2
:100ED00021E030E040E050E059016A01A628B7283F
:100EE000C828D9280BC0821593052CF01C01AA2410
:100EF000BB24650103C0EE24FF24870111969C9159
:100F0000D20111968C91981709F445C0992339F0B4
:100F1000A80197012A193B094C095D0906C0A601E1
:100F200095012E193F09400B510B57FD08C0118246
:100F30003382228224833583468357831DC081E018
:100F400081833382228288279927DC01821B930BBD
:100F5000A40BB50B84839583A683B7830DC0220FA2
:100F6000331F441F551F2483358346835783828153
:100F700093810197938382832481358146815781B0
:100F8000DA01C9010197A109B1098F5F9F4FAF4FE6
:100F9000BF4328F30BC0918333822282EA0CFB1CEF
:100FA0000C1D1D1DE482F5820683178383E0808378
:100FB000248135814681578157FF1AC0C901AA276C
:100FC00097FDA095BA2F81709070A070B070569563
:100FD000479537952795822B932BA42BB52B84838C
:100FE0009583A683B78382819381019693838283BD
:100FF000DF0101C0D201CD01CDB7DEB7E2E10C9433
:10100000F80CA0E2B0E0E7E0F8E00C94E80C6983AB
:101010007A838B839C832D833E834F835887E9E0BB
:10102000EE2EF12CEC0EFD1ECE010196B7010E94B2
:101030000B0C8E010F5E1F4FCE010596B8010E946A
:101040000B0C8A8991E089278A8BC701B801AE0110
:10105000475E5F4F0E94B5060E94360BA096E6E001
:101060000C94040DA0E2B0E0E8E3F8E00C94E80C86
:1010700069837A838B839C832D833E834F83588738
:10108000F9E0EF2EF12CEC0EFD1ECE010196B7011A
:101090000E940B0C8E010F5E1F4FCE010596B8010A
:1010A0000E940B0CC701B801AE01475E5F4F0E9462
:1010B000B5060E94360BA096E6E00C94040DA0E263
:1010C000B0E0E5E6F8E00C94DC0C69837A838B836E
:1010D0009C832D833E834F835887CE010196BE01AA
:1010E000675F7F4F0E940B0CCE010596BE016F5EBD
:1010F0007F4F0E940B0C9985923088F0898982304D
:10110000C8F0943019F4823051F404C0843029F4CA
:10111000923081F480E091E0C6C0923049F420E042
:101120009A858A89981321E02A87CE010996BBC047
:10113000823049F420E09A858A89981321E02A8B2D
:10114000CE014196B0C02D843E844F8458886D886E
:101150007E888F88988CEE24FF248701AA24BB24E4
:10116000650140E050E060E070E0E0E0F0E0C101E7
:1011700081709070892BE9F0E60CF71C081D191D91
:101180009A01AB012A0D3B1D4C1D5D1D80E090E0D6
:10119000A0E0B0E0E614F7040805190520F481E0AA
:1011A00090E0A0E0B0E0BA01A901480F591F6A1F02
:1011B0007B1FAA0CBB1CCC1CDD1C97FE08C081E069
:1011C00090E0A0E0B0E0A82AB92ACA2ADB2A31962A
:1011D000E032F10549F0660C771C881C991C569486
:1011E000479437942794C3CFFA85EA892B893C89A1
:1011F0008B859C85280F391F2E5F3F4F17C0CA0172
:1012000081709070892B61F016950795F794E7949B
:1012100080E090E0A0E0B0E8E82AF92A0A2B1B2B36
:1012200076956795579547952F5F3F4F77FDE7CFA9
:101230000CC0440F551F661F771F17FD4160EE0C51
:10124000FF1C001F111F21503040403090E0590713
:1012500090E0690790E4790760F32B8F3C8FDB0106
:10126000CA018F779070A070B07080349105A1058D
:10127000B10561F447FD0AC0E114F104010511054F
:1012800029F0405C5F4F6F4F7F4F40781A8EFE17FA
:1012900011F081E08A8F4D8F5E8F6F8F78A383E08E
:1012A000898FCE0149960E94360BA096E2E10C94FC
:1012B000F80CA8E1B0E0EFE5F9E00C94E40C6983E8
:1012C0007A838B839C832D833E834F835887B9E039
:1012D000EB2EF12CEC0EFD1ECE010196B7010E9403
:1012E0000B0C8E010F5E1F4FCE010596B8010E94B8
:1012F0000B0C2985223008F47EC03989323010F475
:10130000B8017CC08A859A8989278A87243011F0A0
:10131000223031F4231709F06EC060E071E06EC036
:10132000343039F41D861E861F86188A1C861B865B
:1013300004C0323021F484E08987B7015FC02B8577
:101340003C858B899C89281B390B3C872B87ED8436
:10135000FE840F851889AD88BE88CF88D88CEA14A2
:10136000FB040C051D0540F4EE0CFF1C001F111FB3
:10137000215030403C872B8720E030E040E050E0B7
:1013800080E090E0A0E0B0E460E070E0EA14FB04EC
:101390000C051D0540F0282B392B4A2B5B2BEA1836
:1013A000FB080C091D09B695A79597958795EE0C36
:1013B000FF1C001F111F6F5F7F4F6F31710531F7E9
:1013C000DA01C9018F779070A070B07080349105F8
:1013D000A105B10561F427FD0AC0E114F10401057E
:1013E000110529F0205C3F4F4F4F5F4F20782D872C
:1013F0003E874F87588BBE01675F7F4FCB010E94AE
:10140000360B6896EAE00C94000DA8E1B0E0EBE042
:10141000FAE00C94E80C69837A838B839C832D8398
:101420003E834F83588789E0E82EF12CEC0EFD1E99
:10143000CE010196B7010E940B0C8E010F5E1F4F6B
:10144000CE010596B8010E940B0C8985823040F0D0
:101450008989823028F0C701B8010E94830C01C03D
:1014600081E06896E6E00C94040DA8E0B0E0EBE3C0
:10147000FAE00C94E50C9B01AC0183E08983DA016E
:10148000C9018827B7FD83959927AA27BB27B82EBE
:10149000211531054105510519F482E089833AC0CF
:1014A0008823A9F0203080E0380780E0480780E8F2
:1014B000580729F460E070E080E09FEC30C0EE2433
:1014C000FF248701E21AF30A040B150B02C079010D
:1014D0008A018EE1C82ED12CDC82CB82ED82FE8285
:1014E0000F831887C801B7010E94E70A01971816F1
:1014F000190684F4082E04C0EE0CFF1C001F111FF7
:101500000A94D2F7ED82FE820F831887C81AD90A8F
:10151000DC82CB82BA82CE0101960E94360B2896DD
:10152000E9E00C94010DACE0B0E0E9E9FAE00C94DC
:10153000EC0C69837A838B839C83CE010196BE0178
:101540006B5F7F4F0E940B0C8D81823061F1823086
:1015500050F1843021F48E81882351F12EC02F81E7
:10156000388537FD20C06E812F3131051CF0662390
:10157000F9F023C08EE190E0821B930B29853A8518
:101580004B855C8504C056954795379527958A9578
:10159000D2F76623B1F050954095309521953F4F95
:1015A0004F4F5F4F0EC020E030E040E050E009C0F8
:1015B0002FEF3FEF4FEF5FE704C020E030E040E067
:1015C00050E8B901CA012C96E2E00C94080DEF92A4
:1015D000FF920F931F937B018C0180E0E81680E05F
:1015E000F80681E0080780E0180788F48FEFE81616
:1015F000F1040105110531F028F088E090E0A0E049
:10160000B0E017C080E090E0A0E0B0E012C080E061
:10161000E81680E0F80680E0080781E0180728F067
:1016200088E190E0A0E0B0E004C080E190E0A0E0BC
:10163000B0E020E230E040E050E0281B390B4A0BDC
:101640005B0B04C016950795F794E7948A95D2F73B
:10165000F701E85FFE4F8081281B310941095109DC
:10166000C9011F910F91FF90EF900895DF92EF92C3
:10167000FF920F931F93FC01E480F5800681178190
:10168000D1808081823048F480E090E0A0E1B0E039
:10169000E82AF92A0A2B1B2BA5C0843009F49FC025
:1016A000823021F4EE24FF24870105C0E114F10407
:1016B0000105110519F4E0E0F0E096C06281738144
:1016C0009FEF623879070CF05BC022E83FEF261BE2
:1016D000370B2A3131052CF020E030E040E050E0BB
:1016E0002AC0B801A701022E04C0769567955795C8
:1016F00047950A94D2F781E090E0A0E0B0E004C002
:10170000880F991FAA1FBB1F2A95D2F70197A1091D
:10171000B1098E219F21A023B1230097A105B10516
:1017200021F081E090E0A0E0B0E09A01AB01282B2D
:10173000392B4A2B5B2BDA01C9018F779070A0708F
:10174000B07080349105A105B10539F427FF09C0B7
:10175000205C3F4F4F4F5F4F04C0215C3F4F4F4FC6
:101760005F4FE0E0F0E02030A0E03A07A0E04A0759
:10177000A0E45A0710F0E1E0F0E079018A0127C007
:101780006038710564F5FB01E158FF4FD801C701CE
:101790008F779070A070B07080349105A105B1056D
:1017A00039F4E7FE0DC080E490E0A0E0B0E004C0B2
:1017B0008FE390E0A0E0B0E0E80EF91E0A1F1B1FC7
:1017C00017FF05C016950795F794E794319687E0C3
:1017D00016950795F794E7948A95D1F705C0EE24FE
:1017E000FF248701EFEFF0E06E2F6795662767957E
:1017F000902F9F77D794DD24D7948E2F8695492FED
:10180000462B582F5D29B701CA011F910F91FF90F8
:10181000EF90DF900895FC01DB014081518122812E
:10182000622F6F7770E0221F2227221F9381892F5A
:10183000880F822B282F30E0991F9927991F119626
:101840009C93119721153105A9F5411551056105A5
:10185000710511F482E037C082E89FEF13969C93E4
:101860008E9312979A01AB0167E0220F331F441F3A
:10187000551F6A95D1F783E08C930DC0220F331F5B
:10188000441F551F12968D919C91139701971396A3
:101890009C938E931297203080E0380780E04807B1
:1018A00080E4580758F314962D933D934D935C9321
:1018B000179708952F3F310579F4411551056105BA
:1018C000710519F484E08C93089564FF03C081E0EE
:1018D0008C9312C01C9210C02F57304013963C932B
:1018E0002E93129783E08C9387E0440F551F661F59
:1018F000771F8A95D1F7706414964D935D936D931D
:101900007C93179708951F93DC01FB019C91923003
:1019100008F447C08081823008F443C0943051F409
:1019200011961C91843099F58181682F70E0611BBC
:1019300071093FC0843021F0923031F48230B9F126
:101940008181882389F12DC011961C9111978230D5
:10195000F1F081811817D9F412962D913C911397CB
:10196000828193818217930794F028173907BCF07E
:1019700014968D919D910D90BC91A02D248135815F
:1019800046815781281739074A075B0718F4112346
:1019900041F00AC082179307A407B50740F411234A
:1019A00019F061E070E005C06FEF7FEF02C060E00A
:1019B00070E0CB011F9108952F923F924F925F925A
:1019C0006F927F928F929F92AF92BF92CF92DF924F
:1019D000EF92FF920F931F93CF93DF93CDB7DEB7B4
:1019E000CA1BDB0B0FB6F894DEBF0FBECDBF099448
:1019F0002A88398848885F846E847D848C849B849F
:101A0000AA84B984C884DF80EE80FD800C811B81AC
:101A1000AA81B981CE0FD11D0FB6F894DEBF0FBEDB
:101A2000CDBFED010895F5D058F080E891E009F4BC
:101A30009EEFF6D028F040E851E059F45EEF09C07F
:101A4000C0C028C1E92FE07803D168F3092E052A28
:101A5000C1F3261737074807590738F00E2E07F845
:101A6000E02569F0E025E0640AC0EF6307F8009420
:101A700007FADB01B9019D01DC01CA01AD01EF9359
:101A800041D0D5D00AD05F91552331F02BED3FE006
:101A900049E450FD49ECE6CA0895DF93DD27B92FEC
:101AA000BF7740E85FE31616170648075B0710F498
:101AB000D92FF7D09F938F937F936F935AD1E8E6F6
:101AC000F0E082D0B4D02F913F914F915F91FAD046
:101AD000DD2349F09058A2EA2AED3FE049EC5FE3AC
:101AE000D0785D2756D1DF91A2C09AD040F091D036
:101AF00030F021F45F3F19F05EC05111CCC061C0DD
:101B0000A7D098F39923C9F35523B1F3951B550B2F
:101B1000BB27AA2762177307840738F09F5F5F4FC0
:101B2000220F331F441FAA1FA9F333D00E2E3AF001
:101B3000E0E830D091505040E695001CCAF729D01B
:101B4000FE2F27D0660F771F881FBB1F261737076A
:101B50004807AB07B0E809F0BB0B802DBF01FF279A
:101B600093585F4F2AF09E3F510568F024C093C000
:101B70005F3FECF3983EDCF3869577956795B795D4
:101B8000F7959F5FC9F7880F911D9695879597F9EF
:101B90000895E1E0660F771F881FBB1F6217730768
:101BA0008407BA0720F0621B730B840BBA0BEE1F7D
:101BB00088F7E095089597F99F6780E870E060E006
:101BC00008959FEF80EC0895DF93CF931F930F93B9
:101BD000FF92EF92DF927B018C01689405C0DA2EB0
:101BE000EF0170D0FE01E894A591259135914591C2
:101BF0005591AEF3EF01CDD0FE019701A801DA9423
:101C000079F7DF90EF90FF900F911F91CF91DF91C7
:101C1000089500240A941616170618060906089552
:101C200000240A9412161306140605060895092EB8
:101C30000394000C11F4882352F0BB0F40F4BF2B27
:101C400011F460FF04C06F5F7F4F8F4F9F4F089567
:101C500057FD9058440F551F59F05F3F71F047955D
:101C6000880F97FB991F61F09F3F79F08795089542
:101C7000121613061406551FF2CF4695F1DF08C061
:101C8000161617061806991FF1CF8695710561057E
:101C900008940895E894BB2766277727CB0197F926
:101CA00008959B01AC0160E070E080E89FE301CB08
:101CB000B0DF28F0B5DF18F0952309F07CCF81CF95
:101CC0001124E9CFC5DFA0F3959FD1F3950F50E024
:101CD000551F629FF001729FBB27F00DB11D639FDE
:101CE000AA27F00DB11DAA1F649F6627B00DA11D84
:101CF000661F829F2227B00DA11D621F739FB00D2A
:101D0000A11D621F839FA00D611D221F749F332799
:101D1000A00D611D231F849F600D211D822F762F32
:101D20006A2F11249F5750408AF0E1F088234AF02F
:101D3000EE0FFF1FBB1F661F771F881F915050407B
:101D4000A9F79E3F510570F036CFA5CF5F3FECF36A
:101D5000983EDCF3869577956795B795F795E79567
:101D60009F5FC1F7FE2B880F911D9695879597F978
:101D700008959B01AC01A3C94CDF30F051DF20F086
:101D800031F49F3F11F41EF41CCF0EF4E095E7FBF5
:101D900012CFE92F5DDF80F3BA176207730784075C
:101DA000950718F071F49EF575CF0EF4E0950B2EA3
:101DB000BA2FA02D0B01B90190010C01CA01A0019D
:101DC0001124FF27591B99F0593F50F4503E68F1F8
:101DD0001A16F040A22F232F342F4427585FF3CF39
:101DE000469537952795A795F0405395C9F77EF40A
:101DF0001F16BA0B620B730B840BBAF09150A1F053
:101E0000FF0FBB1F661F771F881FC2F70EC0BA0FD8
:101E1000621F731F841F48F4879577956795B79560
:101E2000F7959E3F08F0B3CF9395880F08F0992758
:0C1E3000EE0F979587950895F894FFCF6A
:101E3C000000000000000000000102020303030385
:101E4C00040404040404040405050505050505053E
:101E5C00050505050505050506060606060606061E
:101E6C000606060606060606060606060606060606
:101E7C0006060606060606060707070707070707EE
:101E8C0007070707070707070707070707070707D6
:101E9C0007070707070707070707070707070707C6
:101EAC0007070707070707070707070707070707B6
:101EBC00070707070707070708080808080808089E
:101ECC000808080808080808080808080808080886
:101EDC000808080808080808080808080808080876
:101EEC000808080808080808080808080808080866
:101EFC000808080808080808080808080808080856
:101F0C000808080808080808080808080808080845
:101F1C000808080808080808080808080808080835
:101F2C000808080808080808080808080808080825
:081F3C0008080808080808085D
:00000001FF
