:100000000C9434000C9446000C948B010C949E00CC
:100010000C9446000C9446000C9446000C94460048
:100020000C9446000C9446000C9446000C94480036
:100030000C9446000C9446000C9446000C94460028
:100040000C9446000C9446000C9423010C9446003A
:100050000C9446000C9446000C9446000C94460008
:100060000C9446000C94460011241FBECFEFD8E03C
:10007000DEBFCDBF11E0A0E0B1E001C01D92AD3107
:10008000B107E1F70E94ED000C9453030C940000BB
:100090001F920F920FB60F9211242F933F934F93FD
:1000A0005F936F937F938F939F93AF93BF93EF93E0
:1000B000FF93F8945D9A8FEF0E94090180911301DC
:1000C000909114010E9411018091150190911601E7
:1000D0000E94110180911701909118010E94110155
:1000E0008091190190911A010E94110180910101E2
:1000F000909102010E9411018091030190910401ED
:100100000E94110180910501909106010E94110148
:1001100078941092850010928400FF91EF91BF9126
:10012000AF919F918F917F916F915F914F913F918F
:100130002F910F900FBE0F901F9018951F920F9246
:100140000FB60F9211242F933F934F935F936F93AA
:100150007F938F939F93AF93BF93EF93FF9383B15D
:1001600090E0837090708230910571F0833091053A
:1001700039F0019769F483E191E00E94410208C0DF
:1001800083E191E00E94410281E091E00E9405023A
:10019000FF91EF91BF91AF919F918F917F916F915F
:1001A0005F914F913F912F910F900FBE0F901F9035
:1001B00018958AB180668AB90E94F6000E948E0264
:1001C0000E94E7010E94BE010E94450184E00E9456
:1001D0003B010E944003789408950E94D90080E476
:1001E0009CE90197F1F75E9AA895FECF1092C500A1
:1001F00083E08093C40086E08093C20088E9809306
:10020000C10008958091C00087FFFCCF8091C60097
:100210000895982F8091C00085FFFCCF9093C60071
:1002200008959C018091C00085FFFCCF2093C600FB
:100230008091C00085FFFCCF832F992787FD9A9579
:100240008093C60008951F920F920FB60F9211244B
:100250008F93F8948091C6008F3F31F48091C00055
:1002600087FFFCCF8091C60078948F910F900FBECE
:100270000F901F901895E0E6F0E0908198619083D0
:10028000886080830895A895089587E880937A0010
:1002900008958F7080937C0080E480937A00809131
:1002A0007A0086FFFCCF109200012091780030E0A8
:1002B00040917900942F80E0282B392BC9010895B3
:1002C00084B18C6284B92498579A80E58CBDE9E6A4
:1002D000F0E0808188608083E99A08955F9A2A9887
:1002E0009AE1292F2A95F1F75F989A95F1F78EBD3B
:1002F0000DB407FEFDCF08950DB407FEFDCF3EB54A
:100300000DB407FEFDCF2EB5932F80E030E0282BF3
:10031000392BC90108951F920F920FB60F92112425
:100320002F933F934F935F936F937F938F939F93FD
:10033000AF93BF93EF93FF930E947C01FF91EF91E6
:10034000BF91AF919F918F917F916F915F914F91ED
:100350003F912F910F900FBE0F901F9018950F9304
:100360001F93162F042F0E949402812F0E94ED02EA
:10037000802F0E94ED021F910F91089586EA6DE291
:1003800040E00E94AF0186EA6DE240E10E94AF01C9
:1003900086EA6DE248E00E94AF0186EA6EE240E83C
:1003A0000E94AF0186EA6FE24FE70E94AF0186EA42
:1003B00061E341E00E94AF0186EA6CE24BE00E94FB
:1003C000AF0186EA68E340E00E94AF01089580ED46
:1003D0006EE340E80E94AF0180ED97E00197F1F7EE
:1003E00080ED6EE340E00E94AF0180ED65E144E006
:1003F0000E94AF0180ED66E14EE10E94AF0180ED09
:1004000067E141E00E94AF010895EF92FF920F93E0
:100410001F937C0186EA0E94940282E30E94ED020F
:1004200087EA0E94E2020E94FF02082F0E94FF0258
:10043000382F20E010E0202B312BF701318320836F
:100440000E94FF02082F0E94FF02382F20E010E0D8
:10045000202B312BF701338322830E94FF02082FC8
:100460000E940903382F20E010E0202B312BF701E8
:10047000358324830E94E5021F910F91FF90EF9036
:100480000895EF92FF921F937C0180ED0E949402E9
:100490008BE10E94ED0281ED0E94E2020E94FF02C8
:1004A000182F0E94FF02312F20E090E0282B392BDB
:1004B000F701378326830E94FF02182F0E94FF0254
:1004C000312F20E090E0282B392B295E3F4FF70198
:1004D000318320830E94FF02182F0E94FF02312FD8
:1004E00020E090E0282B392B295F3F4FF701338321
:1004F00022830E94FF02182F0E940903312F20E05F
:1005000090E0282B392B265F3F4FF701358324835A
:100510000E94E5021F91FF90EF9008951092B9009C
:100520008CE08093B8000895982F84EA8093BC00F3
:100530008091BC0087FFFCCF8091B900887F883014
:1005400021F0803111F081E008959093BB0084E8A0
:100550008093BC008091BC0087FFFCCF9091B900D4
:10056000987F983111F480E0089580E0903409F08C
:1005700081E00895982F44EA34E824E94093BC00D0
:100580008091BC0087FFFCCF8091B900887F8830C4
:1005900011F0803199F79093BB003093BC008091AB
:1005A000BC0087FFFCCF8091B900887F803211F0BA
:1005B000883539F42093BC008091BC0084FDFCCFC9
:1005C000DDCF08950E949402089584E98093BC00D1
:1005D0008091BC0084FDFCCF08958093BB0084E82B
:1005E0008093BC008091BC0087FFFCCF8091B90054
:1005F00090E0887F883209F091E0892F089584EC9B
:100600008093BC008091BC0087FFFCCF8091BB0031
:10061000089584E88093BC008091BC0087FFFCCFE4
:100620008091BB000895E8E6F0E0808181608083DE
:10063000EBE6F0E08081816080830895E8E6F0E0F9
:10064000808181608083EBE6F0E08081826080833E
:10065000089510928000E1E8F0E088E0808388EE61
:100660009DEF9093890080938800109285001092EE
:10067000840082E080936F0080818460808308958D
:10068000A8E6B0E08C9181608C93EBE6F0E080818D
:10069000816080838C9181608C9380818260808373
:0A06A0000E9429030895F894FFCF8B
:00000001FF
