:100000000C9434000C9446000C9445010C94480068
:100010000C9446000C9446000C9446000C94460048
:100020000C9446000C9446000C9446000C94460038
:100030000C9446000C9446000C9446000C94460028
:100040000C9446000C9446000C94DD000C94460081
:100050000C9446000C9446000C9446000C94460008
:100060000C9446000C94460011241FBECFEFD8E03C
:10007000DEBFCDBF11E0A0E0B1E001C01D92AD3107
:10008000B107E1F70E949B000C94F4020C9400006D
:100090001F920F920FB60F9211242F933F934F93FD
:1000A0005F936F937F938F939F93AF93BF93EF93E0
:1000B000FF9383B190E0837090708230910599F046
:1000C0008330910561F0019791F483E191E00E9402
:1000D000FB0182E00E9403010E94CB0008C083E183
:1000E00091E00E94FB0181E091E00E94BF01FF913D
:1000F000EF91BF91AF919F918F917F916F915F91A0
:100100004F913F912F910F900FBE0F901F90189518
:100110000E94B0000E941A010E9448020E94A101A0
:100120000E9478010E94FF0084E00E94F5000E9476
:10013000CD02789408950E94880080E49CE901979C
:10014000F1F78AB180668AB95E9A20E931E0A89514
:1001500088EE93E0F9013197F1F70197D9F7F7CFDE
:100160001092C50083E08093C40086E08093C200B3
:1001700088E98093C10008958091C00087FFFCCF7B
:100180008091C6000895982F8091C00085FFFCCF14
:100190009093C60008959C018091C00085FFFCCF1C
:1001A0002093C6008091C00085FFFCCF832F992744
:1001B00087FD9A958093C60008951F920F920FB6FF
:1001C0000F9211248F93F8948091C6008F3F31F4E1
:1001D0008091C00087FFFCCF8091C60078948F91FA
:1001E0000F900FBE0F901F901895E0E6F0E0908101
:1001F00098619083886080830895A895089587E822
:1002000080937A0008958F7080937C0080E48093BF
:100210007A0080917A0086FFFCCF10920001209135
:10022000780030E040917900942F80E0282B392B22
:10023000C901089584B18C6284B92498579A80E5E5
:100240008CBDE9E6F0E0808188608083E99A0895BA
:100250005F9A2A989AE1292F2A95F1F75F989A9543
:10026000F1F78EBD0DB407FEFDCF08950DB407FE66
:10027000FDCF3EB50DB407FEFDCF2EB5932F80E028
:1002800030E0282B392BC90108951F920F920FB629
:100290000F9211242F933F934F935F936F937F930C
:1002A0008F939F93AF93BF93EF93FF930E94360179
:1002B000FF91EF91BF91AF919F918F917F916F913E
:1002C0005F914F913F912F910F900FBE0F901F9014
:1002D00018950F931F93162F042F0E944E02812F03
:1002E0000E94A702802F0E94A7021F910F910895DC
:1002F00086EA6DE240E00E94690186EA6DE240E133
:100300000E94690186EA6DE248E00E94690186EA7E
:100310006EE240E80E94690186EA6FE24FE70E94C0
:10032000690186EA61E341E00E94690186EA6CE2C4
:100330004BE00E94690186EA68E340E00E9469019F
:10034000089580ED6EE340E80E94690180ED97E03A
:100350000197F1F780ED6EE340E00E94690180EDC6
:1003600065E144E00E94690180ED66E14EE10E9492
:10037000690180ED67E141E00E9469010895EF9213
:10038000FF920F931F937C0186EA0E944E0282E344
:100390000E94A70287EA0E949C020E94B902082FCD
:1003A0000E94B902382F20E010E0202B312BF701FA
:1003B000318320830E94B902082F0E94B902382F8E
:1003C00020E010E0202B312BF701338322830E94A1
:1003D000B902082F0E94C302382F20E010E0202B22
:1003E000312BF701358324830E949F021F910F91C7
:1003F000FF90EF900895EF92FF921F937C0180EDA4
:100400000E944E028BE10E94A70281ED0E949C0295
:100410000E94B902182F0E94B902312F20E090E00B
:10042000282B392BF701378326830E94B902182F16
:100430000E94B902312F20E090E0282B392B295E51
:100440003F4FF701318320830E94B902182F0E9489
:10045000B902312F20E090E0282B392B295F3F4F44
:10046000F701338322830E94B902182F0E94C3022E
:10047000312F20E090E0282B392B265F3F4FF701EA
:10048000358324830E949F021F91FF90EF9008956F
:100490001092B9008CE08093B8000895982F84EAF8
:1004A0008093BC008091BC0087FFFCCF8091B90095
:1004B000887F883021F0803111F081E00895909399
:1004C000BB0084E88093BC008091BC0087FFFCCF18
:1004D0009091B900987F983111F480E0089580E000
:1004E000903409F081E00895982F44EA34E824E933
:1004F0004093BC008091BC0087FFFCCF8091B90085
:10050000887F883011F0803199F79093BB00309349
:10051000BC008091BC0087FFFCCF8091B900887F30
:10052000803211F0883539F42093BC008091BC00F2
:1005300084FDFCCFDDCF08950E944E02089584E92A
:100540008093BC008091BC0084FDFCCF0895809313
:10055000BB0084E88093BC008091BC0087FFFCCF87
:100560008091B90090E0887F883209F091E0892F6E
:10057000089584EC8093BC008091BC0087FFFCCF81
:100580008091BB00089584E88093BC008091BC00FA
:1005900087FFFCCF8091BB000895A8E6B0E08C9166
:1005A00081608C93EBE6F0E08081816080838C91A8
:1005B00081608C938081826080830895E8E6F0E01A
:1005C000808181608083EBE6F0E0808181608083C0
:1005D0000895E8E6F0E0808181608083EBE6F0E05A
:0C05E0008081826080830895F894FFCF32
:00000001FF
